{"abi":[{"type":"constructor","inputs":[{"name":"_feeRecipient","type":"address","internalType":"address"},{"name":"_ethUsdFeed","type":"address","internalType":"address"}],"stateMutability":"nonpayable"},{"type":"function","name":"amountToUsd","inputs":[{"name":"paymentToken","type":"address","internalType":"address"},{"name":"amount","type":"uint256","internalType":"uint256"}],"outputs":[{"name":"","type":"uint256","internalType":"uint256"}],"stateMutability":"view"},{"type":"function","name":"auctions","inputs":[{"name":"","type":"uint256","internalType":"uint256"}],"outputs":[{"name":"seller","type":"address","internalType":"address"},{"name":"nftContract","type":"address","internalType":"address"},{"name":"tokenId","type":"uint256","internalType":"uint256"},{"name":"paymentToken","type":"address","internalType":"address"},{"name":"startPriceUsd","type":"uint256","internalType":"uint256"},{"name":"highestBidAmount","type":"uint256","internalType":"uint256"},{"name":"highestBidUsd","type":"uint256","internalType":"uint256"},{"name":"highestBidder","type":"address","internalType":"address"},{"name":"endTime","type":"uint256","internalType":"uint256"},{"name":"active","type":"bool","internalType":"bool"}],"stateMutability":"view"},{"type":"function","name":"bidErc20","inputs":[{"name":"auctionId","type":"uint256","internalType":"uint256"},{"name":"amount","type":"uint256","internalType":"uint256"}],"outputs":[],"stateMutability":"nonpayable"},{"type":"function","name":"bidEth","inputs":[{"name":"auctionId","type":"uint256","internalType":"uint256"}],"outputs":[],"stateMutability":"payable"},{"type":"function","name":"bidHighUsdValue","inputs":[{"name":"auctionId","type":"uint256","internalType":"uint256"}],"outputs":[{"name":"","type":"uint256","internalType":"uint256"}],"stateMutability":"view"},{"type":"function","name":"bidValueUsd","inputs":[{"name":"amountWei","type":"uint256","internalType":"uint256"}],"outputs":[{"name":"","type":"uint256","internalType":"uint256"}],"stateMutability":"view"},{"type":"function","name":"bidders","inputs":[{"name":"","type":"uint256","internalType":"uint256"},{"name":"","type":"uint256","internalType":"uint256"}],"outputs":[{"name":"","type":"address","internalType":"address"}],"stateMutability":"view"},{"type":"function","name":"createAuction","inputs":[{"name":"nftContract","type":"address","internalType":"address"},{"name":"tokenId","type":"uint256","internalType":"uint256"},{"name":"paymentToken","type":"address","internalType":"address"},{"name":"startPriceUsd","type":"uint256","internalType":"uint256"},{"name":"durationHours","type":"uint256","internalType":"uint256"}],"outputs":[{"name":"auctionId","type":"uint256","internalType":"uint256"}],"stateMutability":"nonpayable"},{"type":"function","name":"endAuction","inputs":[{"name":"auctionId","type":"uint256","internalType":"uint256"}],"outputs":[],"stateMutability":"nonpayable"},{"type":"function","name":"ethToUsd","inputs":[{"name":"amountWei","type":"uint256","internalType":"uint256"}],"outputs":[{"name":"","type":"uint256","internalType":"uint256"}],"stateMutability":"view"},{"type":"function","name":"ethUsdFeed","inputs":[],"outputs":[{"name":"","type":"address","internalType":"contract AggregatorV3Interface"}],"stateMutability":"view"},{"type":"function","name":"feeRecipient","inputs":[],"outputs":[{"name":"","type":"address","internalType":"address"}],"stateMutability":"view"},{"type":"function","name":"getAuction","inputs":[{"name":"auctionId","type":"uint256","internalType":"uint256"}],"outputs":[{"name":"seller","type":"address","internalType":"address"},{"name":"nftContract","type":"address","internalType":"address"},{"name":"tokenId","type":"uint256","internalType":"uint256"},{"name":"paymentToken","type":"address","internalType":"address"},{"name":"startPriceUsd","type":"uint256","internalType":"uint256"},{"name":"highestBidAmount","type":"uint256","internalType":"uint256"},{"name":"highestBidUsd","type":"uint256","internalType":"uint256"},{"name":"highestBidder","type":"address","internalType":"address"},{"name":"endTime","type":"uint256","internalType":"uint256"},{"name":"active","type":"bool","internalType":"bool"}],"stateMutability":"view"},{"type":"function","name":"getAuctions","inputs":[],"outputs":[{"name":"","type":"tuple[]","internalType":"struct NFTAuction.Auction[]","components":[{"name":"seller","type":"address","internalType":"address"},{"name":"nftContract","type":"address","internalType":"address"},{"name":"tokenId","type":"uint256","internalType":"uint256"},{"name":"paymentToken","type":"address","internalType":"address"},{"name":"startPriceUsd","type":"uint256","internalType":"uint256"},{"name":"highestBidAmount","type":"uint256","internalType":"uint256"},{"name":"highestBidUsd","type":"uint256","internalType":"uint256"},{"name":"highestBidder","type":"address","internalType":"address"},{"name":"endTime","type":"uint256","internalType":"uint256"},{"name":"active","type":"bool","internalType":"bool"}]}],"stateMutability":"view"},{"type":"function","name":"getEthPriceUsd","inputs":[],"outputs":[{"name":"","type":"uint256","internalType":"uint256"}],"stateMutability":"view"},{"type":"function","name":"listed","inputs":[{"name":"","type":"bytes32","internalType":"bytes32"}],"outputs":[{"name":"","type":"bool","internalType":"bool"}],"stateMutability":"view"},{"type":"function","name":"pendingWithdrawals","inputs":[{"name":"","type":"uint256","internalType":"uint256"},{"name":"","type":"address","internalType":"address"}],"outputs":[{"name":"","type":"uint256","internalType":"uint256"}],"stateMutability":"view"},{"type":"function","name":"platformFee","inputs":[],"outputs":[{"name":"","type":"uint256","internalType":"uint256"}],"stateMutability":"view"},{"type":"function","name":"refund","inputs":[{"name":"auctionId","type":"uint256","internalType":"uint256"}],"outputs":[],"stateMutability":"nonpayable"},{"type":"function","name":"setEthUsdFeed","inputs":[{"name":"newFeed","type":"address","internalType":"address"}],"outputs":[],"stateMutability":"nonpayable"},{"type":"function","name":"setPlatformFee","inputs":[{"name":"newFee","type":"uint256","internalType":"uint256"}],"outputs":[],"stateMutability":"nonpayable"},{"type":"function","name":"setTokenUsdFeed","inputs":[{"name":"token","type":"address","internalType":"address"},{"name":"feed","type":"address","internalType":"address"}],"outputs":[],"stateMutability":"nonpayable"},{"type":"function","name":"tokenUsdFeed","inputs":[{"name":"","type":"address","internalType":"address"}],"outputs":[{"name":"","type":"address","internalType":"contract AggregatorV3Interface"}],"stateMutability":"view"},{"type":"function","name":"updateFeeRecipient","inputs":[{"name":"newRecipient","type":"address","internalType":"address"}],"outputs":[],"stateMutability":"nonpayable"},{"type":"event","name":"AuctionCreated","inputs":[{"name":"seller","type":"address","indexed":true,"internalType":"address"},{"name":"nftContract","type":"address","indexed":true,"internalType":"address"},{"name":"tokenId","type":"uint256","indexed":true,"internalType":"uint256"},{"name":"paymentToken","type":"address","indexed":false,"internalType":"address"},{"name":"startPriceUsd","type":"uint256","indexed":false,"internalType":"uint256"},{"name":"endTime","type":"uint256","indexed":false,"internalType":"uint256"}],"anonymous":false},{"type":"event","name":"AuctionEnded","inputs":[{"name":"auctionId","type":"uint256","indexed":true,"internalType":"uint256"},{"name":"winner","type":"address","indexed":false,"internalType":"address"},{"name":"amount","type":"uint256","indexed":false,"internalType":"uint256"},{"name":"amountUsd","type":"uint256","indexed":false,"internalType":"uint256"}],"anonymous":false},{"type":"event","name":"EthUsdFeedUpdated","inputs":[{"name":"feed","type":"address","indexed":true,"internalType":"address"}],"anonymous":false},{"type":"event","name":"HighestBidIncreased","inputs":[{"name":"auctionId","type":"uint256","indexed":true,"internalType":"uint256"},{"name":"bidder","type":"address","indexed":true,"internalType":"address"},{"name":"amount","type":"uint256","indexed":false,"internalType":"uint256"},{"name":"amountUsd","type":"uint256","indexed":false,"internalType":"uint256"}],"anonymous":false},{"type":"event","name":"Refund","inputs":[{"name":"auctionId","type":"uint256","indexed":true,"internalType":"uint256"},{"name":"bidder","type":"address","indexed":true,"internalType":"address"},{"name":"amount","type":"uint256","indexed":false,"internalType":"uint256"}],"anonymous":false},{"type":"event","name":"TokenUsdFeedUpdated","inputs":[{"name":"token","type":"address","indexed":true,"internalType":"address"},{"name":"feed","type":"address","indexed":true,"internalType":"address"}],"anonymous":false},{"type":"error","name":"ReentrancyGuardReentrantCall","inputs":[]},{"type":"error","name":"SafeERC20FailedOperation","inputs":[{"name":"token","type":"address","internalType":"address"}]}],"bytecode":{"object":"0x608060405260fa600655348015610014575f5ffd5b50604051614bc5380380614bc58339818101604052810190610036919061024d565b60016100546100496101bd60201b60201c565b6101e660201b60201c565b5f01819055505f73ffffffffffffffffffffffffffffffffffffffff168273ffffffffffffffffffffffffffffffffffffffff16036100c8576040517f08c379a00000000000000000000000000000000000000000000000000000000081526004016100bf906102e5565b60405180910390fd5b5f73ffffffffffffffffffffffffffffffffffffffff168173ffffffffffffffffffffffffffffffffffffffff1603610136576040517f08c379a000000000000000000000000000000000000000000000000000000000815260040161012d9061034d565b60405180910390fd5b8160075f6101000a81548173ffffffffffffffffffffffffffffffffffffffff021916908373ffffffffffffffffffffffffffffffffffffffff1602179055508060015f6101000a81548173ffffffffffffffffffffffffffffffffffffffff021916908373ffffffffffffffffffffffffffffffffffffffff160217905550505061036b565b5f7f9b779b17422d0df92223018b32b4d1fa46e071723d6817e2486d003becc55f005f1b905090565b5f819050919050565b5f5ffd5b5f73ffffffffffffffffffffffffffffffffffffffff82169050919050565b5f61021c826101f3565b9050919050565b61022c81610212565b8114610236575f5ffd5b50565b5f8151905061024781610223565b92915050565b5f5f60408385031215610263576102626101ef565b5b5f61027085828601610239565b925050602061028185828601610239565b9150509250929050565b5f82825260208201905092915050565b7f496e76616c696420726563697069656e740000000000000000000000000000005f82015250565b5f6102cf60118361028b565b91506102da8261029b565b602082019050919050565b5f6020820190508181035f8301526102fc816102c3565b9050919050565b7f496e76616c6964206665656400000000000000000000000000000000000000005f82015250565b5f610337600c8361028b565b915061034282610303565b602082019050919050565b5f6020820190508181035f8301526103648161032b565b9050919050565b61484d806103785f395ff3fe60806040526004361061014a575f3560e01c80638009b7bd116100b5578063bf7e3b601161006e578063bf7e3b60146104cc578063d1c1120514610508578063d7c0691914610544578063f160d3691461056e578063f2df504714610596578063f9ac1f67146105d25761014a565b80638009b7bd1461039e57806386b0e7c1146103c85780638a69ac51146103f0578063946d14801461042c578063afe3d6fd14610468578063b9a2de3a146104a45761014a565b806341a53be31161010757806341a53be31461026a57806346904840146102a657806355a75475146102d057806355c623c6146102f8578063571a26a01461031457806378bd7935146103595761014a565b806312d2d79b1461014e57806312e8e2c31461018a57806326232a2e146101b257806327636b88146101dc578063278ecde1146102065780632d0b0df81461022e575b5f5ffd5b348015610159575f5ffd5b50610174600480360381019061016f9190613194565b6105fa565b604051610181919061321a565b60405180910390f35b348015610195575f5ffd5b506101b060048036038101906101ab9190613266565b61062a565b005b3480156101bd575f5ffd5b506101c6610708565b6040516101d391906132a0565b60405180910390f35b3480156101e7575f5ffd5b506101f061070e565b6040516101fd91906132a0565b60405180910390f35b348015610211575f5ffd5b5061022c60048036038101906102279190613266565b6107ed565b005b348015610239575f5ffd5b50610254600480360381019061024f9190613266565b610aa9565b60405161026191906132a0565b60405180910390f35b348015610275575f5ffd5b50610290600480360381019061028b91906132b9565b610ad4565b60405161029d91906132a0565b60405180910390f35b3480156102b1575f5ffd5b506102ba610af4565b6040516102c79190613306565b60405180910390f35b3480156102db575f5ffd5b506102f660048036038101906102f19190613194565b610b19565b005b610312600480360381019061030d9190613266565b610c9c565b005b34801561031f575f5ffd5b5061033a60048036038101906103359190613266565b610daf565b6040516103509a99989796959493929190613339565b60405180910390f35b348015610364575f5ffd5b5061037f600480360381019061037a9190613266565b610e95565b6040516103959a99989796959493929190613339565b60405180910390f35b3480156103a9575f5ffd5b506103b26110c1565b6040516103bf919061321a565b60405180910390f35b3480156103d3575f5ffd5b506103ee60048036038101906103e991906133d3565b6110e6565b005b3480156103fb575f5ffd5b5061041660048036038101906104119190613266565b61124a565b60405161042391906132a0565b60405180910390f35b348015610437575f5ffd5b50610452600480360381019061044d9190613266565b61125b565b60405161045f91906132a0565b60405180910390f35b348015610473575f5ffd5b5061048e60048036038101906104899190613411565b611299565b60405161049b91906132a0565b60405180910390f35b3480156104af575f5ffd5b506104ca60048036038101906104c59190613266565b6114be565b005b3480156104d7575f5ffd5b506104f260048036038101906104ed9190613482565b611af0565b6040516104ff91906134ad565b60405180910390f35b348015610513575f5ffd5b5061052e600480360381019061052991906133d3565b611b0d565b60405161053b9190613306565b60405180910390f35b34801561054f575f5ffd5b50610558611b55565b6040516105659190613666565b60405180910390f35b348015610579575f5ffd5b50610594600480360381019061058f9190613194565b611d50565b005b3480156105a1575f5ffd5b506105bc60048036038101906105b79190613686565b611e90565b6040516105c991906132a0565b60405180910390f35b3480156105dd575f5ffd5b506105f860048036038101906105f391906136fd565b6125fa565b005b6002602052805f5260405f205f915054906101000a900473ffffffffffffffffffffffffffffffffffffffff1681565b60075f9054906101000a900473ffffffffffffffffffffffffffffffffffffffff1673ffffffffffffffffffffffffffffffffffffffff163373ffffffffffffffffffffffffffffffffffffffff16146106b9576040517f08c379a00000000000000000000000000000000000000000000000000000000081526004016106b090613795565b60405180910390fd5b6103e88111156106fe576040517f08c379a00000000000000000000000000000000000000000000000000000000081526004016106f5906137fd565b60405180910390fd5b8060068190555050565b60065481565b5f5f60015f9054906101000a900473ffffffffffffffffffffffffffffffffffffffff1673ffffffffffffffffffffffffffffffffffffffff1663feaf968c6040518163ffffffff1660e01b815260040160a060405180830381865afa15801561077a573d5f5f3e3d5ffd5b505050506040513d601f19601f8201168201806040525081019061079e91906138a1565b5050509150505f81136107e6576040517f08c379a00000000000000000000000000000000000000000000000000000000081526004016107dd90613962565b60405180910390fd5b8091505090565b6107f561283e565b5f5f828154811061080957610808613980565b5b905f5260205f2090600a020190505f60035f8481526020019081526020015f205f3373ffffffffffffffffffffffffffffffffffffffff1673ffffffffffffffffffffffffffffffffffffffff1681526020019081526020015f205490505f81116108a9576040517f08c379a00000000000000000000000000000000000000000000000000000000081526004016108a0906139f7565b60405180910390fd5b5f60035f8581526020019081526020015f205f3373ffffffffffffffffffffffffffffffffffffffff1673ffffffffffffffffffffffffffffffffffffffff1681526020019081526020015f20819055505f73ffffffffffffffffffffffffffffffffffffffff16826003015f9054906101000a900473ffffffffffffffffffffffffffffffffffffffff1673ffffffffffffffffffffffffffffffffffffffff16036109fe575f3373ffffffffffffffffffffffffffffffffffffffff168260405161097590613a42565b5f6040518083038185875af1925050503d805f81146109af576040519150601f19603f3d011682016040523d82523d5f602084013e6109b4565b606091505b50509050806109f8576040517f08c379a00000000000000000000000000000000000000000000000000000000081526004016109ef90613aa0565b60405180910390fd5b50610a4d565b610a4c3382846003015f9054906101000a900473ffffffffffffffffffffffffffffffffffffffff1673ffffffffffffffffffffffffffffffffffffffff166128609092919063ffffffff16565b5b3373ffffffffffffffffffffffffffffffffffffffff16837f21e12a7cad0da5928167e1084ea4d5fdf8d9af66657a2543a9ac76a0ca08147783604051610a9491906132a0565b60405180910390a35050610aa66128b3565b50565b5f5f8281548110610abd57610abc613980565b5b905f5260205f2090600a0201600601549050919050565b6003602052815f5260405f20602052805f5260405f205f91509150505481565b60075f9054906101000a900473ffffffffffffffffffffffffffffffffffffffff1681565b60075f9054906101000a900473ffffffffffffffffffffffffffffffffffffffff1673ffffffffffffffffffffffffffffffffffffffff163373ffffffffffffffffffffffffffffffffffffffff1614610ba8576040517f08c379a0000000000000000000000000000000000000000000000000000000008152600401610b9f90613795565b60405180910390fd5b5f73ffffffffffffffffffffffffffffffffffffffff168173ffffffffffffffffffffffffffffffffffffffff1603610c16576040517f08c379a0000000000000000000000000000000000000000000000000000000008152600401610c0d90613b08565b60405180910390fd5b8060015f6101000a81548173ffffffffffffffffffffffffffffffffffffffff021916908373ffffffffffffffffffffffffffffffffffffffff1602179055508073ffffffffffffffffffffffffffffffffffffffff167f3d04f62cdf62a5129d5f92a091c7bbd51bc9c3a044037a493bcbbd1f3112cb0a60405160405180910390a250565b610ca461283e565b5f5f8281548110610cb857610cb7613980565b5b905f5260205f2090600a020190505f73ffffffffffffffffffffffffffffffffffffffff16816003015f9054906101000a900473ffffffffffffffffffffffffffffffffffffffff1673ffffffffffffffffffffffffffffffffffffffff1614610d57576040517f08c379a0000000000000000000000000000000000000000000000000000000008152600401610d4e90613b70565b60405180910390fd5b5f3411610d99576040517f08c379a0000000000000000000000000000000000000000000000000000000008152600401610d9090613bd8565b60405180910390fd5b610da382346128cd565b50610dac6128b3565b50565b5f8181548110610dbd575f80fd5b905f5260205f2090600a02015f91509050805f015f9054906101000a900473ffffffffffffffffffffffffffffffffffffffff1690806001015f9054906101000a900473ffffffffffffffffffffffffffffffffffffffff1690806002015490806003015f9054906101000a900473ffffffffffffffffffffffffffffffffffffffff1690806004015490806005015490806006015490806007015f9054906101000a900473ffffffffffffffffffffffffffffffffffffffff1690806008015490806009015f9054906101000a900460ff1690508a565b5f5f5f5f5f5f5f5f5f5f5f5f8c81548110610eb357610eb2613980565b5b905f5260205f2090600a0201604051806101400160405290815f82015f9054906101000a900473ffffffffffffffffffffffffffffffffffffffff1673ffffffffffffffffffffffffffffffffffffffff1673ffffffffffffffffffffffffffffffffffffffff168152602001600182015f9054906101000a900473ffffffffffffffffffffffffffffffffffffffff1673ffffffffffffffffffffffffffffffffffffffff1673ffffffffffffffffffffffffffffffffffffffff16815260200160028201548152602001600382015f9054906101000a900473ffffffffffffffffffffffffffffffffffffffff1673ffffffffffffffffffffffffffffffffffffffff1673ffffffffffffffffffffffffffffffffffffffff168152602001600482015481526020016005820154815260200160068201548152602001600782015f9054906101000a900473ffffffffffffffffffffffffffffffffffffffff1673ffffffffffffffffffffffffffffffffffffffff1673ffffffffffffffffffffffffffffffffffffffff16815260200160088201548152602001600982015f9054906101000a900460ff1615151515815250509050805f015181602001518260400151836060015184608001518560a001518660c001518760e001518861010001518961012001519a509a509a509a509a509a509a509a509a509a50509193959799509193959799565b60015f9054906101000a900473ffffffffffffffffffffffffffffffffffffffff1681565b6110ee61283e565b5f5f838154811061110257611101613980565b5b905f5260205f2090600a020190505f73ffffffffffffffffffffffffffffffffffffffff16816003015f9054906101000a900473ffffffffffffffffffffffffffffffffffffffff1673ffffffffffffffffffffffffffffffffffffffff16036111a1576040517f08c379a000000000000000000000000000000000000000000000000000000000815260040161119890613c40565b60405180910390fd5b5f82116111e3576040517f08c379a00000000000000000000000000000000000000000000000000000000081526004016111da90613ca8565b60405180910390fd5b611233333084846003015f9054906101000a900473ffffffffffffffffffffffffffffffffffffffff1673ffffffffffffffffffffffffffffffffffffffff16612ce7909392919063ffffffff16565b61123d83836128cd565b506112466128b3565b5050565b5f6112548261125b565b9050919050565b5f5f61126561070e565b9050670de0b6b3a764000080828561127d9190613cf3565b6112879190613cf3565b6112919190613d61565b915050919050565b5f5f6112a484612d3c565b90505f8173ffffffffffffffffffffffffffffffffffffffff1663feaf968c6040518163ffffffff1660e01b815260040160a060405180830381865afa1580156112f0573d5f5f3e3d5ffd5b505050506040513d601f19601f8201168201806040525081019061131491906138a1565b5050509150505f811361135c576040517f08c379a000000000000000000000000000000000000000000000000000000000815260040161135390613962565b60405180910390fd5b5f8273ffffffffffffffffffffffffffffffffffffffff1663313ce5676040518163ffffffff1660e01b8152600401602060405180830381865afa1580156113a6573d5f5f3e3d5ffd5b505050506040513d601f19601f820116820180604052508101906113ca9190613dc7565b90505f5f73ffffffffffffffffffffffffffffffffffffffff168773ffffffffffffffffffffffffffffffffffffffff1614611472578673ffffffffffffffffffffffffffffffffffffffff1663313ce5676040518163ffffffff1660e01b8152600401602060405180830381865afa158015611449573d5f5f3e3d5ffd5b505050506040513d601f19601f8201168201806040525081019061146d9190613dc7565b611475565b60125b90506114b286670de0b6b3a76400008561148f9190613cf3565b8460ff168460ff166114a19190613df2565b600a6114ad9190613f54565b612e71565b94505050505092915050565b805f81815481106114d2576114d1613980565b5b905f5260205f2090600a02016009015f9054906101000a900460ff1661152d576040517f08c379a000000000000000000000000000000000000000000000000000000000815260040161152490613fe8565b60405180910390fd5b61153561283e565b815f818154811061154957611548613980565b5b905f5260205f2090600a02016008015442101561159b576040517f08c379a000000000000000000000000000000000000000000000000000000000815260040161159290614050565b60405180910390fd5b5f5f84815481106115af576115ae613980565b5b905f5260205f2090600a020190505f816009015f6101000a81548160ff0219169083151502179055505f60055f61160d846001015f9054906101000a900473ffffffffffffffffffffffffffffffffffffffff168560020154612f50565b81526020019081526020015f205f6101000a81548160ff0219169083151502179055505f73ffffffffffffffffffffffffffffffffffffffff16816007015f9054906101000a900473ffffffffffffffffffffffffffffffffffffffff1673ffffffffffffffffffffffffffffffffffffffff1614611aa5575f61169a8260050154600654612710612e71565b90505f8183600501546116ad919061406e565b9050826001015f9054906101000a900473ffffffffffffffffffffffffffffffffffffffff1673ffffffffffffffffffffffffffffffffffffffff166342842e0e845f015f9054906101000a900473ffffffffffffffffffffffffffffffffffffffff16856007015f9054906101000a900473ffffffffffffffffffffffffffffffffffffffff1686600201546040518463ffffffff1660e01b8152600401611758939291906140a1565b5f604051808303815f87803b15801561176f575f5ffd5b505af1158015611781573d5f5f3e3d5ffd5b505050505f73ffffffffffffffffffffffffffffffffffffffff16836003015f9054906101000a900473ffffffffffffffffffffffffffffffffffffffff1673ffffffffffffffffffffffffffffffffffffffff1603611975575f835f015f9054906101000a900473ffffffffffffffffffffffffffffffffffffffff1673ffffffffffffffffffffffffffffffffffffffff168260405161182290613a42565b5f6040518083038185875af1925050503d805f811461185c576040519150601f19603f3d011682016040523d82523d5f602084013e611861565b606091505b50509050806118a5576040517f08c379a000000000000000000000000000000000000000000000000000000000815260040161189c90613aa0565b60405180910390fd5b5f60075f9054906101000a900473ffffffffffffffffffffffffffffffffffffffff1673ffffffffffffffffffffffffffffffffffffffff16846040516118eb90613a42565b5f6040518083038185875af1925050503d805f8114611925576040519150601f19603f3d011682016040523d82523d5f602084013e61192a565b606091505b505090508061196e576040517f08c379a000000000000000000000000000000000000000000000000000000000815260040161196590614120565b60405180910390fd5b5050611a37565b5f836003015f9054906101000a900473ffffffffffffffffffffffffffffffffffffffff1690506119e9845f015f9054906101000a900473ffffffffffffffffffffffffffffffffffffffff16838373ffffffffffffffffffffffffffffffffffffffff166128609092919063ffffffff16565b611a3560075f9054906101000a900473ffffffffffffffffffffffffffffffffffffffff16848373ffffffffffffffffffffffffffffffffffffffff166128609092919063ffffffff16565b505b857fe9ba83469fc8ee4260dd274fd43b5a54f2df813ad21c4637d53084d1f3866b37846007015f9054906101000a900473ffffffffffffffffffffffffffffffffffffffff1685600501548660060154604051611a969392919061413e565b60405180910390a25050611ae2565b837fe9ba83469fc8ee4260dd274fd43b5a54f2df813ad21c4637d53084d1f3866b375f5f5f604051611ad9939291906141ac565b60405180910390a25b5050611aec6128b3565b5050565b6005602052805f5260405f205f915054906101000a900460ff1681565b6004602052815f5260405f208181548110611b26575f80fd5b905f5260205f20015f915091509054906101000a900473ffffffffffffffffffffffffffffffffffffffff1681565b60605f805480602002602001604051908101604052809291908181526020015f905b82821015611d47578382905f5260205f2090600a0201604051806101400160405290815f82015f9054906101000a900473ffffffffffffffffffffffffffffffffffffffff1673ffffffffffffffffffffffffffffffffffffffff1673ffffffffffffffffffffffffffffffffffffffff168152602001600182015f9054906101000a900473ffffffffffffffffffffffffffffffffffffffff1673ffffffffffffffffffffffffffffffffffffffff1673ffffffffffffffffffffffffffffffffffffffff16815260200160028201548152602001600382015f9054906101000a900473ffffffffffffffffffffffffffffffffffffffff1673ffffffffffffffffffffffffffffffffffffffff1673ffffffffffffffffffffffffffffffffffffffff168152602001600482015481526020016005820154815260200160068201548152602001600782015f9054906101000a900473ffffffffffffffffffffffffffffffffffffffff1673ffffffffffffffffffffffffffffffffffffffff1673ffffffffffffffffffffffffffffffffffffffff16815260200160088201548152602001600982015f9054906101000a900460ff16151515158152505081526020019060010190611b77565b50505050905090565b60075f9054906101000a900473ffffffffffffffffffffffffffffffffffffffff1673ffffffffffffffffffffffffffffffffffffffff163373ffffffffffffffffffffffffffffffffffffffff1614611ddf576040517f08c379a0000000000000000000000000000000000000000000000000000000008152600401611dd690613795565b60405180910390fd5b5f73ffffffffffffffffffffffffffffffffffffffff168173ffffffffffffffffffffffffffffffffffffffff1603611e4d576040517f08c379a0000000000000000000000000000000000000000000000000000000008152600401611e449061422b565b60405180910390fd5b8060075f6101000a81548173ffffffffffffffffffffffffffffffffffffffff021916908373ffffffffffffffffffffffffffffffffffffffff16021790555050565b5f5f73ffffffffffffffffffffffffffffffffffffffff168673ffffffffffffffffffffffffffffffffffffffff1603611eff576040517f08c379a0000000000000000000000000000000000000000000000000000000008152600401611ef690614293565b60405180910390fd5b5f8311611f41576040517f08c379a0000000000000000000000000000000000000000000000000000000008152600401611f38906142fb565b60405180910390fd5b5f611f4c8787612f50565b905060055f8281526020019081526020015f205f9054906101000a900460ff1615611fac576040517f08c379a0000000000000000000000000000000000000000000000000000000008152600401611fa390614363565b60405180910390fd5b5f73ffffffffffffffffffffffffffffffffffffffff168573ffffffffffffffffffffffffffffffffffffffff16146120aa575f73ffffffffffffffffffffffffffffffffffffffff1660025f8773ffffffffffffffffffffffffffffffffffffffff1673ffffffffffffffffffffffffffffffffffffffff1681526020019081526020015f205f9054906101000a900473ffffffffffffffffffffffffffffffffffffffff1673ffffffffffffffffffffffffffffffffffffffff16036120a9576040517f08c379a00000000000000000000000000000000000000000000000000000000081526004016120a0906143cb565b60405180910390fd5b5b5f8790503373ffffffffffffffffffffffffffffffffffffffff168173ffffffffffffffffffffffffffffffffffffffff16636352211e896040518263ffffffff1660e01b81526004016120fe91906132a0565b602060405180830381865afa158015612119573d5f5f3e3d5ffd5b505050506040513d601f19601f8201168201806040525081019061213d91906143fd565b73ffffffffffffffffffffffffffffffffffffffff1614612193576040517f08c379a000000000000000000000000000000000000000000000000000000000815260040161218a90614498565b60405180910390fd5b3073ffffffffffffffffffffffffffffffffffffffff168173ffffffffffffffffffffffffffffffffffffffff1663081812fc896040518263ffffffff1660e01b81526004016121e391906132a0565b602060405180830381865afa1580156121fe573d5f5f3e3d5ffd5b505050506040513d601f19601f8201168201806040525081019061222291906143fd565b73ffffffffffffffffffffffffffffffffffffffff1614806122ba57508073ffffffffffffffffffffffffffffffffffffffff1663e985e9c533306040518363ffffffff1660e01b815260040161227a9291906144b6565b602060405180830381865afa158015612295573d5f5f3e3d5ffd5b505050506040513d601f19601f820116820180604052508101906122b99190614507565b5b6122f9576040517f08c379a00000000000000000000000000000000000000000000000000000000081526004016122f0906145a2565b60405180910390fd5b5f610e10856123089190613cf3565b426123139190613df2565b90505f6040518061014001604052803373ffffffffffffffffffffffffffffffffffffffff1681526020018b73ffffffffffffffffffffffffffffffffffffffff1681526020018a81526020018973ffffffffffffffffffffffffffffffffffffffff1681526020018881526020015f81526020015f81526020015f73ffffffffffffffffffffffffffffffffffffffff16815260200183815260200160011515815250908060018154018082558091505060019003905f5260205f2090600a02015f909190919091505f820151815f015f6101000a81548173ffffffffffffffffffffffffffffffffffffffff021916908373ffffffffffffffffffffffffffffffffffffffff1602179055506020820151816001015f6101000a81548173ffffffffffffffffffffffffffffffffffffffff021916908373ffffffffffffffffffffffffffffffffffffffff160217905550604082015181600201556060820151816003015f6101000a81548173ffffffffffffffffffffffffffffffffffffffff021916908373ffffffffffffffffffffffffffffffffffffffff1602179055506080820151816004015560a0820151816005015560c0820151816006015560e0820151816007015f6101000a81548173ffffffffffffffffffffffffffffffffffffffff021916908373ffffffffffffffffffffffffffffffffffffffff1602179055506101008201518160080155610120820151816009015f6101000a81548160ff0219169083151502179055505050600160055f8581526020019081526020015f205f6101000a81548160ff02191690831515021790555060015f80549050612582919061406e565b9350878973ffffffffffffffffffffffffffffffffffffffff163373ffffffffffffffffffffffffffffffffffffffff167f64ecfe8c1eb065a6b359d391b7c108db395a48029eecb1906c04bf097ab4a3078a8a866040516125e69392919061413e565b60405180910390a450505095945050505050565b60075f9054906101000a900473ffffffffffffffffffffffffffffffffffffffff1673ffffffffffffffffffffffffffffffffffffffff163373ffffffffffffffffffffffffffffffffffffffff1614612689576040517f08c379a000000000000000000000000000000000000000000000000000000000815260040161268090613795565b60405180910390fd5b5f73ffffffffffffffffffffffffffffffffffffffff168273ffffffffffffffffffffffffffffffffffffffff16036126f7576040517f08c379a00000000000000000000000000000000000000000000000000000000081526004016126ee9061460a565b60405180910390fd5b5f73ffffffffffffffffffffffffffffffffffffffff168173ffffffffffffffffffffffffffffffffffffffff1603612765576040517f08c379a000000000000000000000000000000000000000000000000000000000815260040161275c90613b08565b60405180910390fd5b8060025f8473ffffffffffffffffffffffffffffffffffffffff1673ffffffffffffffffffffffffffffffffffffffff1681526020019081526020015f205f6101000a81548173ffffffffffffffffffffffffffffffffffffffff021916908373ffffffffffffffffffffffffffffffffffffffff1602179055508073ffffffffffffffffffffffffffffffffffffffff168273ffffffffffffffffffffffffffffffffffffffff167f59ae99aabda38202fba540bda6464576eabb48571935bba6b8a78543cc0d74ce60405160405180910390a35050565b612846612f82565b6002612858612853612fc3565b612fec565b5f0181905550565b61286d8383836001612ff5565b6128ae57826040517f5274afe70000000000000000000000000000000000000000000000000000000081526004016128a59190613306565b60405180910390fd5b505050565b60016128c56128c0612fc3565b612fec565b5f0181905550565b5f5f83815481106128e1576128e0613980565b5b905f5260205f2090600a02019050806009015f9054906101000a900460ff1661293f576040517f08c379a000000000000000000000000000000000000000000000000000000000815260040161293690613fe8565b60405180910390fd5b80600801544210612985576040517f08c379a000000000000000000000000000000000000000000000000000000000815260040161297c90614672565b60405180910390fd5b805f015f9054906101000a900473ffffffffffffffffffffffffffffffffffffffff1673ffffffffffffffffffffffffffffffffffffffff163373ffffffffffffffffffffffffffffffffffffffff1603612a15576040517f08c379a0000000000000000000000000000000000000000000000000000000008152600401612a0c906146da565b60405180910390fd5b5f612a43826003015f9054906101000a900473ffffffffffffffffffffffffffffffffffffffff1684611299565b90508160040154811015612a8c576040517f08c379a0000000000000000000000000000000000000000000000000000000008152600401612a8390614742565b60405180910390fd5b81600601548111612ad2576040517f08c379a0000000000000000000000000000000000000000000000000000000008152600401612ac990614742565b60405180910390fd5b5f826007015f9054906101000a900473ffffffffffffffffffffffffffffffffffffffff1690505f836005015490505f73ffffffffffffffffffffffffffffffffffffffff168273ffffffffffffffffffffffffffffffffffffffff1614612b97578060035f8881526020019081526020015f205f8473ffffffffffffffffffffffffffffffffffffffff1673ffffffffffffffffffffffffffffffffffffffff1681526020019081526020015f205f828254612b8f9190613df2565b925050819055505b3373ffffffffffffffffffffffffffffffffffffffff168273ffffffffffffffffffffffffffffffffffffffff1614612c3a5760045f8781526020019081526020015f2033908060018154018082558091505060019003905f5260205f20015f9091909190916101000a81548173ffffffffffffffffffffffffffffffffffffffff021916908373ffffffffffffffffffffffffffffffffffffffff1602179055505b84846005018190555082846006018190555033846007015f6101000a81548173ffffffffffffffffffffffffffffffffffffffff021916908373ffffffffffffffffffffffffffffffffffffffff1602179055503373ffffffffffffffffffffffffffffffffffffffff16867f924bb510dc408fcef13ed4d1724a83c0f7344a771caf570d7d25a5916e001c1c8786604051612cd7929190614760565b60405180910390a3505050505050565b612cf5848484846001613057565b612d3657836040517f5274afe7000000000000000000000000000000000000000000000000000000008152600401612d2d9190613306565b60405180910390fd5b50505050565b5f5f73ffffffffffffffffffffffffffffffffffffffff168273ffffffffffffffffffffffffffffffffffffffff1603612d995760015f9054906101000a900473ffffffffffffffffffffffffffffffffffffffff169050612e6c565b5f60025f8473ffffffffffffffffffffffffffffffffffffffff1673ffffffffffffffffffffffffffffffffffffffff1681526020019081526020015f205f9054906101000a900473ffffffffffffffffffffffffffffffffffffffff1690505f73ffffffffffffffffffffffffffffffffffffffff168173ffffffffffffffffffffffffffffffffffffffff1603612e67576040517f08c379a0000000000000000000000000000000000000000000000000000000008152600401612e5e906143cb565b60405180910390fd5b809150505b919050565b5f5f5f612e7e86866130c8565b915091505f8203612ea357838181612e9957612e98613d34565b5b0492505050612f49565b818411612ec257612ec1612ebc5f8614601260116130e5565b6130fe565b5b5f8486880990508181118303925080820391505f855f038616905080860495508083049250600181825f0304019050808402831792505f600287600302189050808702600203810290508087026002038102905080870260020381029050808702600203810290508087026002038102905080870260020381029050808402955050505050505b9392505050565b5f8282604051602001612f649291906147ec565b60405160208183030381529060405280519060200120905092915050565b612f8a61310f565b15612fc1576040517f3ee5aeb500000000000000000000000000000000000000000000000000000000815260040160405180910390fd5b565b5f7f9b779b17422d0df92223018b32b4d1fa46e071723d6817e2486d003becc55f005f1b905090565b5f819050919050565b5f5f63a9059cbb60e01b9050604051815f525f1960601c86166004528460245260205f60445f5f8b5af1925060015f5114831661304957838315161561303d573d5f823e3d81fd5b5f873b113d1516831692505b806040525050949350505050565b5f5f6323b872dd60e01b9050604051815f525f1960601c87166004525f1960601c86166024528460445260205f60645f5f8c5af1925060015f511483166130b55783831516156130a9573d5f823e3d81fd5b5f883b113d1516831692505b806040525f606052505095945050505050565b5f5f5f198385098385029150818110828203039250509250929050565b5f6130ef8461312b565b82841802821890509392505050565b634e487b715f52806020526024601cfd5b5f600261312261311d612fc3565b612fec565b5f015414905090565b5f8115159050919050565b5f5ffd5b5f73ffffffffffffffffffffffffffffffffffffffff82169050919050565b5f6131638261313a565b9050919050565b61317381613159565b811461317d575f5ffd5b50565b5f8135905061318e8161316a565b92915050565b5f602082840312156131a9576131a8613136565b5b5f6131b684828501613180565b91505092915050565b5f819050919050565b5f6131e26131dd6131d88461313a565b6131bf565b61313a565b9050919050565b5f6131f3826131c8565b9050919050565b5f613204826131e9565b9050919050565b613214816131fa565b82525050565b5f60208201905061322d5f83018461320b565b92915050565b5f819050919050565b61324581613233565b811461324f575f5ffd5b50565b5f813590506132608161323c565b92915050565b5f6020828403121561327b5761327a613136565b5b5f61328884828501613252565b91505092915050565b61329a81613233565b82525050565b5f6020820190506132b35f830184613291565b92915050565b5f5f604083850312156132cf576132ce613136565b5b5f6132dc85828601613252565b92505060206132ed85828601613180565b9150509250929050565b61330081613159565b82525050565b5f6020820190506133195f8301846132f7565b92915050565b5f8115159050919050565b6133338161331f565b82525050565b5f6101408201905061334d5f83018d6132f7565b61335a602083018c6132f7565b613367604083018b613291565b613374606083018a6132f7565b6133816080830189613291565b61338e60a0830188613291565b61339b60c0830187613291565b6133a860e08301866132f7565b6133b6610100830185613291565b6133c461012083018461332a565b9b9a5050505050505050505050565b5f5f604083850312156133e9576133e8613136565b5b5f6133f685828601613252565b925050602061340785828601613252565b9150509250929050565b5f5f6040838503121561342757613426613136565b5b5f61343485828601613180565b925050602061344585828601613252565b9150509250929050565b5f819050919050565b6134618161344f565b811461346b575f5ffd5b50565b5f8135905061347c81613458565b92915050565b5f6020828403121561349757613496613136565b5b5f6134a48482850161346e565b91505092915050565b5f6020820190506134c05f83018461332a565b92915050565b5f81519050919050565b5f82825260208201905092915050565b5f819050602082019050919050565b6134f881613159565b82525050565b61350781613233565b82525050565b6135168161331f565b82525050565b61014082015f8201516135315f8501826134ef565b50602082015161354460208501826134ef565b50604082015161355760408501826134fe565b50606082015161356a60608501826134ef565b50608082015161357d60808501826134fe565b5060a082015161359060a08501826134fe565b5060c08201516135a360c08501826134fe565b5060e08201516135b660e08501826134ef565b506101008201516135cb6101008501826134fe565b506101208201516135e061012085018261350d565b50505050565b5f6135f1838361351c565b6101408301905092915050565b5f602082019050919050565b5f613614826134c6565b61361e81856134d0565b9350613629836134e0565b805f5b8381101561365957815161364088826135e6565b975061364b836135fe565b92505060018101905061362c565b5085935050505092915050565b5f6020820190508181035f83015261367e818461360a565b905092915050565b5f5f5f5f5f60a0868803121561369f5761369e613136565b5b5f6136ac88828901613180565b95505060206136bd88828901613252565b94505060406136ce88828901613180565b93505060606136df88828901613252565b92505060806136f088828901613252565b9150509295509295909350565b5f5f6040838503121561371357613712613136565b5b5f61372085828601613180565b925050602061373185828601613180565b9150509250929050565b5f82825260208201905092915050565b7f4e6f742066656520726563697069656e740000000000000000000000000000005f82015250565b5f61377f60118361373b565b915061378a8261374b565b602082019050919050565b5f6020820190508181035f8301526137ac81613773565b9050919050565b7f46656520746f6f206869676800000000000000000000000000000000000000005f82015250565b5f6137e7600c8361373b565b91506137f2826137b3565b602082019050919050565b5f6020820190508181035f830152613814816137db565b9050919050565b5f69ffffffffffffffffffff82169050919050565b6138398161381b565b8114613843575f5ffd5b50565b5f8151905061385481613830565b92915050565b5f819050919050565b61386c8161385a565b8114613876575f5ffd5b50565b5f8151905061388781613863565b92915050565b5f8151905061389b8161323c565b92915050565b5f5f5f5f5f60a086880312156138ba576138b9613136565b5b5f6138c788828901613846565b95505060206138d888828901613879565b94505060406138e98882890161388d565b93505060606138fa8882890161388d565b925050608061390b88828901613846565b9150509295509295909350565b7f496e76616c6964207072696365000000000000000000000000000000000000005f82015250565b5f61394c600d8361373b565b915061395782613918565b602082019050919050565b5f6020820190508181035f83015261397981613940565b9050919050565b7f4e487b71000000000000000000000000000000000000000000000000000000005f52603260045260245ffd5b7f4e6f2066756e647320746f2077697468647261770000000000000000000000005f82015250565b5f6139e160148361373b565b91506139ec826139ad565b602082019050919050565b5f6020820190508181035f830152613a0e816139d5565b9050919050565b5f81905092915050565b50565b5f613a2d5f83613a15565b9150613a3882613a1f565b5f82019050919050565b5f613a4c82613a22565b9150819050919050565b7f4661696c656420746f207472616e7366657220457468657200000000000000005f82015250565b5f613a8a60188361373b565b9150613a9582613a56565b602082019050919050565b5f6020820190508181035f830152613ab781613a7e565b9050919050565b7f496e76616c6964206665656400000000000000000000000000000000000000005f82015250565b5f613af2600c8361373b565b9150613afd82613abe565b602082019050919050565b5f6020820190508181035f830152613b1f81613ae6565b9050919050565b7f55736520455243323020626964000000000000000000000000000000000000005f82015250565b5f613b5a600d8361373b565b9150613b6582613b26565b602082019050919050565b5f6020820190508181035f830152613b8781613b4e565b9050919050565b7f4e6f204554482073656e740000000000000000000000000000000000000000005f82015250565b5f613bc2600b8361373b565b9150613bcd82613b8e565b602082019050919050565b5f6020820190508181035f830152613bef81613bb6565b9050919050565b7f55736520455448206269640000000000000000000000000000000000000000005f82015250565b5f613c2a600b8361373b565b9150613c3582613bf6565b602082019050919050565b5f6020820190508181035f830152613c5781613c1e565b9050919050565b7f5a65726f20616d6f756e740000000000000000000000000000000000000000005f82015250565b5f613c92600b8361373b565b9150613c9d82613c5e565b602082019050919050565b5f6020820190508181035f830152613cbf81613c86565b9050919050565b7f4e487b71000000000000000000000000000000000000000000000000000000005f52601160045260245ffd5b5f613cfd82613233565b9150613d0883613233565b9250828202613d1681613233565b91508282048414831517613d2d57613d2c613cc6565b5b5092915050565b7f4e487b71000000000000000000000000000000000000000000000000000000005f52601260045260245ffd5b5f613d6b82613233565b9150613d7683613233565b925082613d8657613d85613d34565b5b828204905092915050565b5f60ff82169050919050565b613da681613d91565b8114613db0575f5ffd5b50565b5f81519050613dc181613d9d565b92915050565b5f60208284031215613ddc57613ddb613136565b5b5f613de984828501613db3565b91505092915050565b5f613dfc82613233565b9150613e0783613233565b9250828201905080821115613e1f57613e1e613cc6565b5b92915050565b5f8160011c9050919050565b5f5f8291508390505b6001851115613e7a57808604811115613e5657613e55613cc6565b5b6001851615613e655780820291505b8081029050613e7385613e25565b9450613e3a565b94509492505050565b5f82613e925760019050613f4d565b81613e9f575f9050613f4d565b8160018114613eb55760028114613ebf57613eee565b6001915050613f4d565b60ff841115613ed157613ed0613cc6565b5b8360020a915084821115613ee857613ee7613cc6565b5b50613f4d565b5060208310610133831016604e8410600b8410161715613f235782820a905083811115613f1e57613f1d613cc6565b5b613f4d565b613f308484846001613e31565b92509050818404811115613f4757613f46613cc6565b5b81810290505b9392505050565b5f613f5e82613233565b9150613f6983613233565b9250613f967fffffffffffffffffffffffffffffffffffffffffffffffffffffffffffffffff8484613e83565b905092915050565b7f41756374696f6e206973206e6f742061637469766500000000000000000000005f82015250565b5f613fd260158361373b565b9150613fdd82613f9e565b602082019050919050565b5f6020820190508181035f830152613fff81613fc6565b9050919050565b7f41756374696f6e206973206e6f7420656e6465640000000000000000000000005f82015250565b5f61403a60148361373b565b915061404582614006565b602082019050919050565b5f6020820190508181035f8301526140678161402e565b9050919050565b5f61407882613233565b915061408383613233565b925082820390508181111561409b5761409a613cc6565b5b92915050565b5f6060820190506140b45f8301866132f7565b6140c160208301856132f7565b6140ce6040830184613291565b949350505050565b7f4661696c656420746f207472616e7366657220666565000000000000000000005f82015250565b5f61410a60168361373b565b9150614115826140d6565b602082019050919050565b5f6020820190508181035f830152614137816140fe565b9050919050565b5f6060820190506141515f8301866132f7565b61415e6020830185613291565b61416b6040830184613291565b949350505050565b5f819050919050565b5f61419661419161418c84614173565b6131bf565b613233565b9050919050565b6141a68161417c565b82525050565b5f6060820190506141bf5f8301866132f7565b6141cc602083018561419d565b6141d9604083018461419d565b949350505050565b7f496e76616c6964206164647265737300000000000000000000000000000000005f82015250565b5f614215600f8361373b565b9150614220826141e1565b602082019050919050565b5f6020820190508181035f83015261424281614209565b9050919050565b7f496e76616c6964206e66742061646472657373000000000000000000000000005f82015250565b5f61427d60138361373b565b915061428882614249565b602082019050919050565b5f6020820190508181035f8301526142aa81614271565b9050919050565b7f496e76616c6964207374617274207072696365000000000000000000000000005f82015250565b5f6142e560138361373b565b91506142f0826142b1565b602082019050919050565b5f6020820190508181035f830152614312816142d9565b9050919050565b7f4e465420686173206578697374656400000000000000000000000000000000005f82015250565b5f61434d600f8361373b565b915061435882614319565b602082019050919050565b5f6020820190508181035f83015261437a81614341565b9050919050565b7f46656564206e6f742073657400000000000000000000000000000000000000005f82015250565b5f6143b5600c8361373b565b91506143c082614381565b602082019050919050565b5f6020820190508181035f8301526143e2816143a9565b9050919050565b5f815190506143f78161316a565b92915050565b5f6020828403121561441257614411613136565b5b5f61441f848285016143e9565b91505092915050565b7f596f7520617265206e6f7420746865206f776e6572206f662074686973204e465f8201527f5400000000000000000000000000000000000000000000000000000000000000602082015250565b5f61448260218361373b565b915061448d82614428565b604082019050919050565b5f6020820190508181035f8301526144af81614476565b9050919050565b5f6040820190506144c95f8301856132f7565b6144d660208301846132f7565b9392505050565b6144e68161331f565b81146144f0575f5ffd5b50565b5f81519050614501816144dd565b92915050565b5f6020828403121561451c5761451b613136565b5b5f614529848285016144f3565b91505092915050565b7f4e4654206973206e6f7420617070726f76656420666f72207468697320636f6e5f8201527f7472616374000000000000000000000000000000000000000000000000000000602082015250565b5f61458c60258361373b565b915061459782614532565b604082019050919050565b5f6020820190508181035f8301526145b981614580565b9050919050565b7f496e76616c696420746f6b656e000000000000000000000000000000000000005f82015250565b5f6145f4600d8361373b565b91506145ff826145c0565b602082019050919050565b5f6020820190508181035f830152614621816145e8565b9050919050565b7f41756374696f6e2068617320656e6465640000000000000000000000000000005f82015250565b5f61465c60118361373b565b915061466782614628565b602082019050919050565b5f6020820190508181035f83015261468981614650565b9050919050565b7f53686f756c646e27742061756374696f6e206f776e65720000000000000000005f82015250565b5f6146c460178361373b565b91506146cf82614690565b602082019050919050565b5f6020820190508181035f8301526146f1816146b8565b9050919050565b7f42696420697320746f6f206c6f770000000000000000000000000000000000005f82015250565b5f61472c600e8361373b565b9150614737826146f8565b602082019050919050565b5f6020820190508181035f83015261475981614720565b9050919050565b5f6040820190506147735f830185613291565b6147806020830184613291565b9392505050565b5f8160601b9050919050565b5f61479d82614787565b9050919050565b5f6147ae82614793565b9050919050565b6147c66147c182613159565b6147a4565b82525050565b5f819050919050565b6147e66147e182613233565b6147cc565b82525050565b5f6147f782856147b5565b60148201915061480782846147d5565b602082019150819050939250505056fea2646970667358221220c26a402f4f3823373e7127939f3ad9cab5abf92c576b39e436d4a2c7bf5976a764736f6c63430008230033","linkReferences":{}},"methodIdentifiers":{"amountToUsd(address,uint256)":"afe3d6fd","auctions(uint256)":"571a26a0","bidErc20(uint256,uint256)":"86b0e7c1","bidEth(uint256)":"55c623c6","bidHighUsdValue(uint256)":"2d0b0df8","bidValueUsd(uint256)":"8a69ac51","bidders(uint256,uint256)":"d1c11205","createAuction(address,uint256,address,uint256,uint256)":"f2df5047","endAuction(uint256)":"b9a2de3a","ethToUsd(uint256)":"946d1480","ethUsdFeed()":"8009b7bd","feeRecipient()":"46904840","getAuction(uint256)":"78bd7935","getAuctions()":"d7c06919","getEthPriceUsd()":"27636b88","listed(bytes32)":"bf7e3b60","pendingWithdrawals(uint256,address)":"41a53be3","platformFee()":"26232a2e","refund(uint256)":"278ecde1","setEthUsdFeed(address)":"55a75475","setPlatformFee(uint256)":"12e8e2c3","setTokenUsdFeed(address,address)":"f9ac1f67","tokenUsdFeed(address)":"12d2d79b","updateFeeRecipient(address)":"f160d369"},"id":47}