{"abi":[{"type":"constructor","inputs":[{"name":"_name","type":"string","internalType":"string"},{"name":"_symol","type":"string","internalType":"string"}],"stateMutability":"nonpayable"},{"type":"function","name":"MAX_SUPPLY","inputs":[],"outputs":[{"name":"","type":"uint256","internalType":"uint256"}],"stateMutability":"view"},{"type":"function","name":"MINT_PRICE","inputs":[],"outputs":[{"name":"","type":"uint256","internalType":"uint256"}],"stateMutability":"view"},{"type":"function","name":"approve","inputs":[{"name":"to","type":"address","internalType":"address"},{"name":"tokenId","type":"uint256","internalType":"uint256"}],"outputs":[],"stateMutability":"nonpayable"},{"type":"function","name":"balanceOf","inputs":[{"name":"owner","type":"address","internalType":"address"}],"outputs":[{"name":"","type":"uint256","internalType":"uint256"}],"stateMutability":"view"},{"type":"function","name":"changeOwner","inputs":[{"name":"newOwner","type":"address","internalType":"address"},{"name":"_tokenId","type":"uint256","internalType":"uint256"}],"outputs":[],"stateMutability":"nonpayable"},{"type":"function","name":"getAllNFTs","inputs":[],"outputs":[{"name":"","type":"uint256[]","internalType":"uint256[]"}],"stateMutability":"view"},{"type":"function","name":"getApproved","inputs":[{"name":"tokenId","type":"uint256","internalType":"uint256"}],"outputs":[{"name":"","type":"address","internalType":"address"}],"stateMutability":"view"},{"type":"function","name":"getName","inputs":[],"outputs":[{"name":"","type":"string","internalType":"string"}],"stateMutability":"view"},{"type":"function","name":"getSybol","inputs":[],"outputs":[{"name":"","type":"string","internalType":"string"}],"stateMutability":"view"},{"type":"function","name":"getTotalSupply","inputs":[],"outputs":[{"name":"","type":"uint256","internalType":"uint256"}],"stateMutability":"pure"},{"type":"function","name":"isApprovedForAll","inputs":[{"name":"owner","type":"address","internalType":"address"},{"name":"operator","type":"address","internalType":"address"}],"outputs":[{"name":"","type":"bool","internalType":"bool"}],"stateMutability":"view"},{"type":"function","name":"mint","inputs":[{"name":"uri","type":"string","internalType":"string"}],"outputs":[{"name":"","type":"uint256","internalType":"uint256"}],"stateMutability":"payable"},{"type":"function","name":"name","inputs":[],"outputs":[{"name":"","type":"string","internalType":"string"}],"stateMutability":"view"},{"type":"function","name":"owner","inputs":[],"outputs":[{"name":"","type":"address","internalType":"address"}],"stateMutability":"view"},{"type":"function","name":"ownerOf","inputs":[{"name":"tokenId","type":"uint256","internalType":"uint256"}],"outputs":[{"name":"","type":"address","internalType":"address"}],"stateMutability":"view"},{"type":"function","name":"renounceOwnership","inputs":[],"outputs":[],"stateMutability":"nonpayable"},{"type":"function","name":"safeTransferFrom","inputs":[{"name":"from","type":"address","internalType":"address"},{"name":"to","type":"address","internalType":"address"},{"name":"tokenId","type":"uint256","internalType":"uint256"}],"outputs":[],"stateMutability":"nonpayable"},{"type":"function","name":"safeTransferFrom","inputs":[{"name":"from","type":"address","internalType":"address"},{"name":"to","type":"address","internalType":"address"},{"name":"tokenId","type":"uint256","internalType":"uint256"},{"name":"data","type":"bytes","internalType":"bytes"}],"outputs":[],"stateMutability":"nonpayable"},{"type":"function","name":"setApprovalForAll","inputs":[{"name":"operator","type":"address","internalType":"address"},{"name":"approved","type":"bool","internalType":"bool"}],"outputs":[],"stateMutability":"nonpayable"},{"type":"function","name":"setMintPrice","inputs":[{"name":"newPrice","type":"uint256","internalType":"uint256"}],"outputs":[],"stateMutability":"nonpayable"},{"type":"function","name":"supportsInterface","inputs":[{"name":"interfaceId","type":"bytes4","internalType":"bytes4"}],"outputs":[{"name":"","type":"bool","internalType":"bool"}],"stateMutability":"view"},{"type":"function","name":"symbol","inputs":[],"outputs":[{"name":"","type":"string","internalType":"string"}],"stateMutability":"view"},{"type":"function","name":"tokenIdCounter","inputs":[],"outputs":[{"name":"","type":"uint256","internalType":"uint256"}],"stateMutability":"view"},{"type":"function","name":"tokenURI","inputs":[{"name":"tokenId","type":"uint256","internalType":"uint256"}],"outputs":[{"name":"","type":"string","internalType":"string"}],"stateMutability":"view"},{"type":"function","name":"totalNFTCnt","inputs":[],"outputs":[{"name":"","type":"uint256","internalType":"uint256"}],"stateMutability":"view"},{"type":"function","name":"transferFrom","inputs":[{"name":"from","type":"address","internalType":"address"},{"name":"to","type":"address","internalType":"address"},{"name":"tokenId","type":"uint256","internalType":"uint256"}],"outputs":[],"stateMutability":"nonpayable"},{"type":"function","name":"transferOwnership","inputs":[{"name":"newOwner","type":"address","internalType":"address"}],"outputs":[],"stateMutability":"nonpayable"},{"type":"function","name":"withdraw","inputs":[],"outputs":[],"stateMutability":"nonpayable"},{"type":"event","name":"Approval","inputs":[{"name":"owner","type":"address","indexed":true,"internalType":"address"},{"name":"approved","type":"address","indexed":true,"internalType":"address"},{"name":"tokenId","type":"uint256","indexed":true,"internalType":"uint256"}],"anonymous":false},{"type":"event","name":"ApprovalForAll","inputs":[{"name":"owner","type":"address","indexed":true,"internalType":"address"},{"name":"operator","type":"address","indexed":true,"internalType":"address"},{"name":"approved","type":"bool","indexed":false,"internalType":"bool"}],"anonymous":false},{"type":"event","name":"BatchMetadataUpdate","inputs":[{"name":"_fromTokenId","type":"uint256","indexed":false,"internalType":"uint256"},{"name":"_toTokenId","type":"uint256","indexed":false,"internalType":"uint256"}],"anonymous":false},{"type":"event","name":"MetadataUpdate","inputs":[{"name":"_tokenId","type":"uint256","indexed":false,"internalType":"uint256"}],"anonymous":false},{"type":"event","name":"NFTMinted","inputs":[{"name":"minter","type":"address","indexed":true,"internalType":"address"},{"name":"tokenId","type":"uint256","indexed":true,"internalType":"uint256"},{"name":"uri","type":"string","indexed":false,"internalType":"string"}],"anonymous":false},{"type":"event","name":"OwnerChanged","inputs":[{"name":"tokenId","type":"uint256","indexed":true,"internalType":"uint256"},{"name":"oldOwner","type":"address","indexed":true,"internalType":"address"},{"name":"newOwner","type":"address","indexed":true,"internalType":"address"}],"anonymous":false},{"type":"event","name":"OwnershipTransferred","inputs":[{"name":"previousOwner","type":"address","indexed":true,"internalType":"address"},{"name":"newOwner","type":"address","indexed":true,"internalType":"address"}],"anonymous":false},{"type":"event","name":"Transfer","inputs":[{"name":"from","type":"address","indexed":true,"internalType":"address"},{"name":"to","type":"address","indexed":true,"internalType":"address"},{"name":"tokenId","type":"uint256","indexed":true,"internalType":"uint256"}],"anonymous":false},{"type":"event","name":"Withdraw","inputs":[{"name":"owner","type":"address","indexed":true,"internalType":"address"},{"name":"amount","type":"uint256","indexed":false,"internalType":"uint256"}],"anonymous":false},{"type":"error","name":"ERC721IncorrectOwner","inputs":[{"name":"sender","type":"address","internalType":"address"},{"name":"tokenId","type":"uint256","internalType":"uint256"},{"name":"owner","type":"address","internalType":"address"}]},{"type":"error","name":"ERC721InsufficientApproval","inputs":[{"name":"operator","type":"address","internalType":"address"},{"name":"tokenId","type":"uint256","internalType":"uint256"}]},{"type":"error","name":"ERC721InvalidApprover","inputs":[{"name":"approver","type":"address","internalType":"address"}]},{"type":"error","name":"ERC721InvalidOperator","inputs":[{"name":"operator","type":"address","internalType":"address"}]},{"type":"error","name":"ERC721InvalidOwner","inputs":[{"name":"owner","type":"address","internalType":"address"}]},{"type":"error","name":"ERC721InvalidReceiver","inputs":[{"name":"receiver","type":"address","internalType":"address"}]},{"type":"error","name":"ERC721InvalidSender","inputs":[{"name":"sender","type":"address","internalType":"address"}]},{"type":"error","name":"ERC721NonexistentToken","inputs":[{"name":"tokenId","type":"uint256","internalType":"uint256"}]},{"type":"error","name":"OwnableInvalidOwner","inputs":[{"name":"owner","type":"address","internalType":"address"}]},{"type":"error","name":"OwnableUnauthorizedAccount","inputs":[{"name":"account","type":"address","internalType":"address"}]}],"bytecode":{"object":"0x608060405266b1a2bc2ec5000060095534801561001a575f5ffd5b5060405161391d38038061391d833981810160405281019061003c91906102fe565b338282815f908161004d9190610595565b50806001908161005d9190610595565b5050505f73ffffffffffffffffffffffffffffffffffffffff168173ffffffffffffffffffffffffffffffffffffffff16036100d0575f6040517f1e4fbdf70000000000000000000000000000000000000000000000000000000081526004016100c791906106a3565b60405180910390fd5b6100df816100ee60201b60201c565b505f60088190555050506106bc565b5f60075f9054906101000a900473ffffffffffffffffffffffffffffffffffffffff1690508160075f6101000a81548173ffffffffffffffffffffffffffffffffffffffff021916908373ffffffffffffffffffffffffffffffffffffffff1602179055508173ffffffffffffffffffffffffffffffffffffffff168173ffffffffffffffffffffffffffffffffffffffff167f8be0079c531659141344cd1fd0a4f28419497f9722a3daafe3b4186f6b6457e060405160405180910390a35050565b5f604051905090565b5f5ffd5b5f5ffd5b5f5ffd5b5f5ffd5b5f601f19601f8301169050919050565b7f4e487b71000000000000000000000000000000000000000000000000000000005f52604160045260245ffd5b610210826101ca565b810181811067ffffffffffffffff8211171561022f5761022e6101da565b5b80604052505050565b5f6102416101b1565b905061024d8282610207565b919050565b5f67ffffffffffffffff82111561026c5761026b6101da565b5b610275826101ca565b9050602081019050919050565b8281835e5f83830152505050565b5f6102a261029d84610252565b610238565b9050828152602081018484840111156102be576102bd6101c6565b5b6102c9848285610282565b509392505050565b5f82601f8301126102e5576102e46101c2565b5b81516102f5848260208601610290565b91505092915050565b5f5f60408385031215610314576103136101ba565b5b5f83015167ffffffffffffffff811115610331576103306101be565b5b61033d858286016102d1565b925050602083015167ffffffffffffffff81111561035e5761035d6101be565b5b61036a858286016102d1565b9150509250929050565b5f81519050919050565b7f4e487b71000000000000000000000000000000000000000000000000000000005f52602260045260245ffd5b5f60028204905060018216806103c257607f821691505b6020821081036103d5576103d461037e565b5b50919050565b5f819050815f5260205f209050919050565b5f6020601f8301049050919050565b5f82821b905092915050565b5f600883026104377fffffffffffffffffffffffffffffffffffffffffffffffffffffffffffffffff826103fc565b61044186836103fc565b95508019841693508086168417925050509392505050565b5f819050919050565b5f819050919050565b5f61048561048061047b84610459565b610462565b610459565b9050919050565b5f819050919050565b61049e8361046b565b6104b26104aa8261048c565b848454610408565b825550505050565b5f5f905090565b6104c96104ba565b6104d4818484610495565b505050565b5f5b828110156104fa576104ef5f8284016104c1565b6001810190506104db565b505050565b601f82111561054d578282111561054c57610519816103db565b610522836103ed565b61052b856103ed565b6020861015610538575f90505b808301610547828403826104d9565b505050505b5b505050565b5f82821c905092915050565b5f61056d5f1984600802610552565b1980831691505092915050565b5f610585838361055e565b9150826002028217905092915050565b61059e82610374565b67ffffffffffffffff8111156105b7576105b66101da565b5b6105c182546103ab565b6105cc8282856104ff565b5f60209050601f8311600181146105fd575f84156105eb578287015190505b6105f5858261057a565b86555061065c565b601f19841661060b866103db565b5f5b828110156106325784890151825560018201915060208501945060208101905061060d565b8683101561064f578489015161064b601f89168261055e565b8355505b6001600288020188555050505b505050505050565b5f73ffffffffffffffffffffffffffffffffffffffff82169050919050565b5f61068d82610664565b9050919050565b61069d81610683565b82525050565b5f6020820190506106b65f830184610694565b92915050565b613254806106c95f395ff3fe6080604052600436106101b6575f3560e01c80638da5cb5b116100eb578063c87b56dd11610089578063e0391b0911610063578063e0391b09146105d6578063e985e9c514610600578063f2fde38b1461063c578063f4a0a52814610664576101b6565b8063c87b56dd14610540578063d85d3d271461057c578063dee5aab9146105ac576101b6565b8063a22cb465116100c5578063a22cb4651461049c578063b88d4fde146104c4578063c002d23d146104ec578063c4e41b2214610516576101b6565b80638da5cb5b1461041e57806395d89b411461044857806398bdf6f514610472576101b6565b80633ccfd60b1161015857806356df3db11161013257806356df3db1146103685780636352211e1461039057806370a08231146103cc578063715018a614610408576101b6565b80633ccfd60b1461030057806341ad443b1461031657806342842e0e14610340576101b6565b8063095ea7b311610194578063095ea7b31461025c57806317d7de7c1461028457806323b872dd146102ae57806332cb6b0c146102d6576101b6565b806301ffc9a7146101ba57806306fdde03146101f6578063081812fc14610220575b5f5ffd5b3480156101c5575f5ffd5b506101e060048036038101906101db91906123a6565b61068c565b6040516101ed91906123eb565b60405180910390f35b348015610201575f5ffd5b5061020a61069d565b6040516102179190612474565b60405180910390f35b34801561022b575f5ffd5b50610246600480360381019061024191906124c7565b61072c565b6040516102539190612531565b60405180910390f35b348015610267575f5ffd5b50610282600480360381019061027d9190612574565b610747565b005b34801561028f575f5ffd5b5061029861075d565b6040516102a59190612474565b60405180910390f35b3480156102b9575f5ffd5b506102d460048036038101906102cf91906125b2565b61076c565b005b3480156102e1575f5ffd5b506102ea61086b565b6040516102f79190612611565b60405180910390f35b34801561030b575f5ffd5b50610314610871565b005b348015610321575f5ffd5b5061032a6109c7565b6040516103379190612474565b60405180910390f35b34801561034b575f5ffd5b50610366600480360381019061036191906125b2565b6109d6565b005b348015610373575f5ffd5b5061038e60048036038101906103899190612574565b6109f5565b005b34801561039b575f5ffd5b506103b660048036038101906103b191906124c7565b610aea565b6040516103c39190612531565b60405180910390f35b3480156103d7575f5ffd5b506103f260048036038101906103ed919061262a565b610afb565b6040516103ff9190612611565b60405180910390f35b348015610413575f5ffd5b5061041c610bb1565b005b348015610429575f5ffd5b50610432610bc4565b60405161043f9190612531565b60405180910390f35b348015610453575f5ffd5b5061045c610bec565b6040516104699190612474565b60405180910390f35b34801561047d575f5ffd5b50610486610c7c565b6040516104939190612611565b60405180910390f35b3480156104a7575f5ffd5b506104c260048036038101906104bd919061267f565b610c82565b005b3480156104cf575f5ffd5b506104ea60048036038101906104e591906127e9565b610c98565b005b3480156104f7575f5ffd5b50610500610cbd565b60405161050d9190612611565b60405180910390f35b348015610521575f5ffd5b5061052a610cc3565b6040516105379190612611565b60405180910390f35b34801561054b575f5ffd5b50610566600480360381019061056191906124c7565b610ccc565b6040516105739190612474565b60405180910390f35b61059660048036038101906105919190612907565b610cde565b6040516105a39190612611565b60405180910390f35b3480156105b7575f5ffd5b506105c0610df3565b6040516105cd9190612611565b60405180910390f35b3480156105e1575f5ffd5b506105ea610dfc565b6040516105f79190612a05565b60405180910390f35b34801561060b575f5ffd5b5061062660048036038101906106219190612a25565b610e9c565b60405161063391906123eb565b60405180910390f35b348015610647575f5ffd5b50610662600480360381019061065d919061262a565b610f2a565b005b34801561066f575f5ffd5b5061068a600480360381019061068591906124c7565b610fae565b005b5f61069682610fc0565b9050919050565b60605f80546106ab90612a90565b80601f01602080910402602001604051908101604052809291908181526020018280546106d790612a90565b80156107225780601f106106f957610100808354040283529160200191610722565b820191905f5260205f20905b81548152906001019060200180831161070557829003601f168201915b5050505050905090565b5f61073682611020565b50610740826110a6565b9050919050565b61075982826107546110df565b6110e6565b5050565b606061076761069d565b905090565b5f73ffffffffffffffffffffffffffffffffffffffff168273ffffffffffffffffffffffffffffffffffffffff16036107dc575f6040517f64a0ae920000000000000000000000000000000000000000000000000000000081526004016107d39190612531565b60405180910390fd5b5f6107ef83836107ea6110df565b6110f8565b90508373ffffffffffffffffffffffffffffffffffffffff168173ffffffffffffffffffffffffffffffffffffffff1614610865578382826040517f64283d7b00000000000000000000000000000000000000000000000000000000815260040161085c93929190612ac0565b60405180910390fd5b50505050565b61271081565b610879611303565b5f4790505f81116108bf576040517f08c379a00000000000000000000000000000000000000000000000000000000081526004016108b690612b3f565b60405180910390fd5b5f6108c8610bc4565b73ffffffffffffffffffffffffffffffffffffffff16826040516108eb90612b8a565b5f6040518083038185875af1925050503d805f8114610925576040519150601f19603f3d011682016040523d82523d5f602084013e61092a565b606091505b505090508061096e576040517f08c379a000000000000000000000000000000000000000000000000000000000815260040161096590612be8565b60405180910390fd5b610976610bc4565b73ffffffffffffffffffffffffffffffffffffffff167f884edad9ce6fa2440d8a54cc123490eb96d2768479d49ff9c7366125a9424364836040516109bb9190612611565b60405180910390a25050565b60606109d1610bec565b905090565b6109f083838360405180602001604052805f815250610c98565b505050565b6109fd611303565b5f73ffffffffffffffffffffffffffffffffffffffff168273ffffffffffffffffffffffffffffffffffffffff1603610a6b576040517f08c379a0000000000000000000000000000000000000000000000000000000008152600401610a6290612c50565b60405180910390fd5b5f610a7582610aea565b9050610a8a610a8383610aea565b848461138a565b8273ffffffffffffffffffffffffffffffffffffffff168173ffffffffffffffffffffffffffffffffffffffff16837f079a159bc2c4ed6aaee92c293d83b6527a380c127aca07f41d3ab4c590957f5660405160405180910390a4505050565b5f610af482611020565b9050919050565b5f5f73ffffffffffffffffffffffffffffffffffffffff168273ffffffffffffffffffffffffffffffffffffffff1603610b6c575f6040517f89c62b64000000000000000000000000000000000000000000000000000000008152600401610b639190612531565b60405180910390fd5b60035f8373ffffffffffffffffffffffffffffffffffffffff1673ffffffffffffffffffffffffffffffffffffffff1681526020019081526020015f20549050919050565b610bb9611303565b610bc25f6114f2565b565b5f60075f9054906101000a900473ffffffffffffffffffffffffffffffffffffffff16905090565b606060018054610bfb90612a90565b80601f0160208091040260200160405190810160405280929190818152602001828054610c2790612a90565b8015610c725780601f10610c4957610100808354040283529160200191610c72565b820191905f5260205f20905b815481529060010190602001808311610c5557829003601f168201915b5050505050905090565b60085481565b610c94610c8d6110df565b83836115b5565b5050565b610ca384848461076c565b610cb7610cae6110df565b8585858561178e565b50505050565b60095481565b5f612710905090565b6060610cd78261193a565b9050919050565b5f61271060085410610d25576040517f08c379a0000000000000000000000000000000000000000000000000000000008152600401610d1c90612cb8565b60405180910390fd5b600954341015610d6a576040517f08c379a0000000000000000000000000000000000000000000000000000000008152600401610d6190612d20565b60405180910390fd5b60085f815480929190610d7c90612d6b565b91905055505f6008549050610d9133826119b6565b610d9b81846119d3565b803373ffffffffffffffffffffffffffffffffffffffff167fd35bb95e09c04b219e35047ce7b7b300e3384264ef84a40456943dbc0fc17c1485604051610de29190612474565b60405180910390a380915050919050565b5f600854905090565b60605f60085467ffffffffffffffff811115610e1b57610e1a6126c5565b5b604051908082528060200260200182016040528015610e495781602001602082028036833780820191505090505b5090505f5f90505b600854811015610e9457600181610e689190612db2565b828281518110610e7b57610e7a612de5565b5b6020026020010181815250508080600101915050610e51565b508091505090565b5f60055f8473ffffffffffffffffffffffffffffffffffffffff1673ffffffffffffffffffffffffffffffffffffffff1681526020019081526020015f205f8373ffffffffffffffffffffffffffffffffffffffff1673ffffffffffffffffffffffffffffffffffffffff1681526020019081526020015f205f9054906101000a900460ff16905092915050565b610f32611303565b5f73ffffffffffffffffffffffffffffffffffffffff168173ffffffffffffffffffffffffffffffffffffffff1603610fa2575f6040517f1e4fbdf7000000000000000000000000000000000000000000000000000000008152600401610f999190612531565b60405180910390fd5b610fab816114f2565b50565b610fb6611303565b8060098190555050565b5f634906490660e01b7bffffffffffffffffffffffffffffffffffffffffffffffffffffffff1916827bffffffffffffffffffffffffffffffffffffffffffffffffffffffff19161480611019575061101882611a2d565b5b9050919050565b5f5f61102b83611b0e565b90505f73ffffffffffffffffffffffffffffffffffffffff168173ffffffffffffffffffffffffffffffffffffffff160361109d57826040517f7e2732890000000000000000000000000000000000000000000000000000000081526004016110949190612611565b60405180910390fd5b80915050919050565b5f60045f8381526020019081526020015f205f9054906101000a900473ffffffffffffffffffffffffffffffffffffffff169050919050565b5f33905090565b6110f38383836001611b47565b505050565b5f5f61110384611b0e565b90505f73ffffffffffffffffffffffffffffffffffffffff168373ffffffffffffffffffffffffffffffffffffffff161461114457611143818486611d06565b5b5f73ffffffffffffffffffffffffffffffffffffffff168173ffffffffffffffffffffffffffffffffffffffff16146111cf576111835f855f5f611b47565b600160035f8373ffffffffffffffffffffffffffffffffffffffff1673ffffffffffffffffffffffffffffffffffffffff1681526020019081526020015f205f82825403925050819055505b5f73ffffffffffffffffffffffffffffffffffffffff168573ffffffffffffffffffffffffffffffffffffffff161461124e57600160035f8773ffffffffffffffffffffffffffffffffffffffff1673ffffffffffffffffffffffffffffffffffffffff1681526020019081526020015f205f82825401925050819055505b8460025f8681526020019081526020015f205f6101000a81548173ffffffffffffffffffffffffffffffffffffffff021916908373ffffffffffffffffffffffffffffffffffffffff160217905550838573ffffffffffffffffffffffffffffffffffffffff168273ffffffffffffffffffffffffffffffffffffffff167fddf252ad1be2c89b69c2b068fc378daa952ba7f163c4a11628f55a4df523b3ef60405160405180910390a4809150509392505050565b61130b6110df565b73ffffffffffffffffffffffffffffffffffffffff16611329610bc4565b73ffffffffffffffffffffffffffffffffffffffff16146113885761134c6110df565b6040517f118cdaa700000000000000000000000000000000000000000000000000000000815260040161137f9190612531565b60405180910390fd5b565b5f73ffffffffffffffffffffffffffffffffffffffff168273ffffffffffffffffffffffffffffffffffffffff16036113fa575f6040517f64a0ae920000000000000000000000000000000000000000000000000000000081526004016113f19190612531565b60405180910390fd5b5f61140683835f6110f8565b90505f73ffffffffffffffffffffffffffffffffffffffff168173ffffffffffffffffffffffffffffffffffffffff160361147857816040517f7e27328900000000000000000000000000000000000000000000000000000000815260040161146f9190612611565b60405180910390fd5b8373ffffffffffffffffffffffffffffffffffffffff168173ffffffffffffffffffffffffffffffffffffffff16146114ec578382826040517f64283d7b0000000000000000000000000000000000000000000000000000000081526004016114e393929190612ac0565b60405180910390fd5b50505050565b5f60075f9054906101000a900473ffffffffffffffffffffffffffffffffffffffff1690508160075f6101000a81548173ffffffffffffffffffffffffffffffffffffffff021916908373ffffffffffffffffffffffffffffffffffffffff1602179055508173ffffffffffffffffffffffffffffffffffffffff168173ffffffffffffffffffffffffffffffffffffffff167f8be0079c531659141344cd1fd0a4f28419497f9722a3daafe3b4186f6b6457e060405160405180910390a35050565b5f73ffffffffffffffffffffffffffffffffffffffff168373ffffffffffffffffffffffffffffffffffffffff1603611625575f6040517fa9fbf51f00000000000000000000000000000000000000000000000000000000815260040161161c9190612531565b60405180910390fd5b5f73ffffffffffffffffffffffffffffffffffffffff168273ffffffffffffffffffffffffffffffffffffffff160361169557816040517f5b08ba1800000000000000000000000000000000000000000000000000000000815260040161168c9190612531565b60405180910390fd5b8060055f8573ffffffffffffffffffffffffffffffffffffffff1673ffffffffffffffffffffffffffffffffffffffff1681526020019081526020015f205f8473ffffffffffffffffffffffffffffffffffffffff1673ffffffffffffffffffffffffffffffffffffffff1681526020019081526020015f205f6101000a81548160ff0219169083151502179055508173ffffffffffffffffffffffffffffffffffffffff168373ffffffffffffffffffffffffffffffffffffffff167f17307eab39ab6107e8899845ad3d59bd9653f200f220920489ca2b5937696c318360405161178191906123eb565b60405180910390a3505050565b5f8373ffffffffffffffffffffffffffffffffffffffff163b1115611933578273ffffffffffffffffffffffffffffffffffffffff1663150b7a02868685856040518563ffffffff1660e01b81526004016117ec9493929190612e64565b6020604051808303815f875af192505050801561182757506040513d601f19601f820116820180604052508101906118249190612ec2565b60015b6118a8573d805f8114611855576040519150601f19603f3d011682016040523d82523d5f602084013e61185a565b606091505b505f8151036118a057836040517f64a0ae920000000000000000000000000000000000000000000000000000000081526004016118979190612531565b60405180910390fd5b805160208201fd5b63150b7a0260e01b7bffffffffffffffffffffffffffffffffffffffffffffffffffffffff1916817bffffffffffffffffffffffffffffffffffffffffffffffffffffffff19161461193157836040517f64a0ae920000000000000000000000000000000000000000000000000000000081526004016119289190612531565b60405180910390fd5b505b5050505050565b606061194582611020565b505f61194f611dc9565b90505f61195b84611ddf565b90505f82510361196f5780925050506119b1565b5f815111156119a357818160405160200161198b929190612f27565b604051602081830303815290604052925050506119b1565b6119ac84611e80565b925050505b919050565b6119cf828260405180602001604052805f815250611ee6565b5050565b8060065f8481526020019081526020015f2090816119f191906130fb565b507ff8e1a15aba9398e019f0b49df1a4fde98ee17ae345cb5f6b5e2c27f5033e8ce782604051611a219190612611565b60405180910390a15050565b5f7f80ac58cd000000000000000000000000000000000000000000000000000000007bffffffffffffffffffffffffffffffffffffffffffffffffffffffff1916827bffffffffffffffffffffffffffffffffffffffffffffffffffffffff19161480611af757507f5b5e139f000000000000000000000000000000000000000000000000000000007bffffffffffffffffffffffffffffffffffffffffffffffffffffffff1916827bffffffffffffffffffffffffffffffffffffffffffffffffffffffff1916145b80611b075750611b0682611f09565b5b9050919050565b5f60025f8381526020019081526020015f205f9054906101000a900473ffffffffffffffffffffffffffffffffffffffff169050919050565b8080611b7f57505f73ffffffffffffffffffffffffffffffffffffffff168273ffffffffffffffffffffffffffffffffffffffff1614155b15611cb1575f611b8e84611020565b90505f73ffffffffffffffffffffffffffffffffffffffff168373ffffffffffffffffffffffffffffffffffffffff1614158015611bf857508273ffffffffffffffffffffffffffffffffffffffff168173ffffffffffffffffffffffffffffffffffffffff1614155b8015611c0b5750611c098184610e9c565b155b15611c4d57826040517fa9fbf51f000000000000000000000000000000000000000000000000000000008152600401611c449190612531565b60405180910390fd5b8115611caf57838573ffffffffffffffffffffffffffffffffffffffff168273ffffffffffffffffffffffffffffffffffffffff167f8c5be1e5ebec7d5bd14f71427d1e84f3dd0314c0f7b2291e5b200ac8c7c3b92560405160405180910390a45b505b8360045f8581526020019081526020015f205f6101000a81548173ffffffffffffffffffffffffffffffffffffffff021916908373ffffffffffffffffffffffffffffffffffffffff16021790555050505050565b611d11838383611f72565b611dc4575f73ffffffffffffffffffffffffffffffffffffffff168373ffffffffffffffffffffffffffffffffffffffff1603611d8557806040517f7e273289000000000000000000000000000000000000000000000000000000008152600401611d7c9190612611565b60405180910390fd5b81816040517f177e802f000000000000000000000000000000000000000000000000000000008152600401611dbb9291906131ca565b60405180910390fd5b505050565b606060405180602001604052805f815250905090565b606060065f8381526020019081526020015f208054611dfd90612a90565b80601f0160208091040260200160405190810160405280929190818152602001828054611e2990612a90565b8015611e745780601f10611e4b57610100808354040283529160200191611e74565b820191905f5260205f20905b815481529060010190602001808311611e5757829003601f168201915b50505050509050919050565b6060611e8b82611020565b505f611e95611dc9565b90505f815111611eb35760405180602001604052805f815250611ede565b80611ebd84612032565b604051602001611ece929190612f27565b6040516020818303038152906040525b915050919050565b611ef083836120fc565b611f04611efb6110df565b5f85858561178e565b505050565b5f7f01ffc9a7000000000000000000000000000000000000000000000000000000007bffffffffffffffffffffffffffffffffffffffffffffffffffffffff1916827bffffffffffffffffffffffffffffffffffffffffffffffffffffffff1916149050919050565b5f5f73ffffffffffffffffffffffffffffffffffffffff168373ffffffffffffffffffffffffffffffffffffffff161415801561202957508273ffffffffffffffffffffffffffffffffffffffff168473ffffffffffffffffffffffffffffffffffffffff161480611fea5750611fe98484610e9c565b5b8061202857508273ffffffffffffffffffffffffffffffffffffffff16612010836110a6565b73ffffffffffffffffffffffffffffffffffffffff16145b5b90509392505050565b60605f6001612040846121ef565b0190505f8167ffffffffffffffff81111561205e5761205d6126c5565b5b6040519080825280601f01601f1916602001820160405280156120905781602001600182028036833780820191505090505b5090505f82602083010190505b6001156120f1578080600190039150507f3031323334353637383961626364656600000000000000000000000000000000600a86061a8153600a85816120e6576120e56131f1565b5b0494505f850361209d575b819350505050919050565b5f73ffffffffffffffffffffffffffffffffffffffff168273ffffffffffffffffffffffffffffffffffffffff160361216c575f6040517f64a0ae920000000000000000000000000000000000000000000000000000000081526004016121639190612531565b60405180910390fd5b5f61217883835f6110f8565b90505f73ffffffffffffffffffffffffffffffffffffffff168173ffffffffffffffffffffffffffffffffffffffff16146121ea575f6040517f73c6ac6e0000000000000000000000000000000000000000000000000000000081526004016121e19190612531565b60405180910390fd5b505050565b5f5f5f90507a184f03e93ff9f4daa797ed6e38ed64bf6a1f010000000000000000831061224b577a184f03e93ff9f4daa797ed6e38ed64bf6a1f0100000000000000008381612241576122406131f1565b5b0492506040810190505b6d04ee2d6d415b85acef81000000008310612288576d04ee2d6d415b85acef8100000000838161227e5761227d6131f1565b5b0492506020810190505b662386f26fc1000083106122b757662386f26fc1000083816122ad576122ac6131f1565b5b0492506010810190505b6305f5e10083106122e0576305f5e10083816122d6576122d56131f1565b5b0492506008810190505b61271083106123055761271083816122fb576122fa6131f1565b5b0492506004810190505b60648310612328576064838161231e5761231d6131f1565b5b0492506002810190505b600a8310612337576001810190505b80915050919050565b5f604051905090565b5f5ffd5b5f5ffd5b5f7fffffffff0000000000000000000000000000000000000000000000000000000082169050919050565b61238581612351565b811461238f575f5ffd5b50565b5f813590506123a08161237c565b92915050565b5f602082840312156123bb576123ba612349565b5b5f6123c884828501612392565b91505092915050565b5f8115159050919050565b6123e5816123d1565b82525050565b5f6020820190506123fe5f8301846123dc565b92915050565b5f81519050919050565b5f82825260208201905092915050565b8281835e5f83830152505050565b5f601f19601f8301169050919050565b5f61244682612404565b612450818561240e565b935061246081856020860161241e565b6124698161242c565b840191505092915050565b5f6020820190508181035f83015261248c818461243c565b905092915050565b5f819050919050565b6124a681612494565b81146124b0575f5ffd5b50565b5f813590506124c18161249d565b92915050565b5f602082840312156124dc576124db612349565b5b5f6124e9848285016124b3565b91505092915050565b5f73ffffffffffffffffffffffffffffffffffffffff82169050919050565b5f61251b826124f2565b9050919050565b61252b81612511565b82525050565b5f6020820190506125445f830184612522565b92915050565b61255381612511565b811461255d575f5ffd5b50565b5f8135905061256e8161254a565b92915050565b5f5f6040838503121561258a57612589612349565b5b5f61259785828601612560565b92505060206125a8858286016124b3565b9150509250929050565b5f5f5f606084860312156125c9576125c8612349565b5b5f6125d686828701612560565b93505060206125e786828701612560565b92505060406125f8868287016124b3565b9150509250925092565b61260b81612494565b82525050565b5f6020820190506126245f830184612602565b92915050565b5f6020828403121561263f5761263e612349565b5b5f61264c84828501612560565b91505092915050565b61265e816123d1565b8114612668575f5ffd5b50565b5f8135905061267981612655565b92915050565b5f5f6040838503121561269557612694612349565b5b5f6126a285828601612560565b92505060206126b38582860161266b565b9150509250929050565b5f5ffd5b5f5ffd5b7f4e487b71000000000000000000000000000000000000000000000000000000005f52604160045260245ffd5b6126fb8261242c565b810181811067ffffffffffffffff8211171561271a576127196126c5565b5b80604052505050565b5f61272c612340565b905061273882826126f2565b919050565b5f67ffffffffffffffff821115612757576127566126c5565b5b6127608261242c565b9050602081019050919050565b828183375f83830152505050565b5f61278d6127888461273d565b612723565b9050828152602081018484840111156127a9576127a86126c1565b5b6127b484828561276d565b509392505050565b5f82601f8301126127d0576127cf6126bd565b5b81356127e084826020860161277b565b91505092915050565b5f5f5f5f6080858703121561280157612800612349565b5b5f61280e87828801612560565b945050602061281f87828801612560565b9350506040612830878288016124b3565b925050606085013567ffffffffffffffff8111156128515761285061234d565b5b61285d878288016127bc565b91505092959194509250565b5f67ffffffffffffffff821115612883576128826126c5565b5b61288c8261242c565b9050602081019050919050565b5f6128ab6128a684612869565b612723565b9050828152602081018484840111156128c7576128c66126c1565b5b6128d284828561276d565b509392505050565b5f82601f8301126128ee576128ed6126bd565b5b81356128fe848260208601612899565b91505092915050565b5f6020828403121561291c5761291b612349565b5b5f82013567ffffffffffffffff8111156129395761293861234d565b5b612945848285016128da565b91505092915050565b5f81519050919050565b5f82825260208201905092915050565b5f819050602082019050919050565b61298081612494565b82525050565b5f6129918383612977565b60208301905092915050565b5f602082019050919050565b5f6129b38261294e565b6129bd8185612958565b93506129c883612968565b805f5b838110156129f85781516129df8882612986565b97506129ea8361299d565b9250506001810190506129cb565b5085935050505092915050565b5f6020820190508181035f830152612a1d81846129a9565b905092915050565b5f5f60408385031215612a3b57612a3a612349565b5b5f612a4885828601612560565b9250506020612a5985828601612560565b9150509250929050565b7f4e487b71000000000000000000000000000000000000000000000000000000005f52602260045260245ffd5b5f6002820490506001821680612aa757607f821691505b602082108103612aba57612ab9612a63565b5b50919050565b5f606082019050612ad35f830186612522565b612ae06020830185612602565b612aed6040830184612522565b949350505050565b7f4e6f2062616c616e636520746f207769746864726177000000000000000000005f82015250565b5f612b2960168361240e565b9150612b3482612af5565b602082019050919050565b5f6020820190508181035f830152612b5681612b1d565b9050919050565b5f81905092915050565b50565b5f612b755f83612b5d565b9150612b8082612b67565b5f82019050919050565b5f612b9482612b6a565b9150819050919050565b7f576974682064726177206661696c0000000000000000000000000000000000005f82015250565b5f612bd2600e8361240e565b9150612bdd82612b9e565b602082019050919050565b5f6020820190508181035f830152612bff81612bc6565b9050919050565b7f5a65726f206164647265737300000000000000000000000000000000000000005f82015250565b5f612c3a600c8361240e565b9150612c4582612c06565b602082019050919050565b5f6020820190508181035f830152612c6781612c2e565b9050919050565b7f4d617820737570706c79207265616368656400000000000000000000000000005f82015250565b5f612ca260128361240e565b9150612cad82612c6e565b602082019050919050565b5f6020820190508181035f830152612ccf81612c96565b9050919050565b7f496e73756666696369656e74207061796d656e740000000000000000000000005f82015250565b5f612d0a60148361240e565b9150612d1582612cd6565b602082019050919050565b5f6020820190508181035f830152612d3781612cfe565b9050919050565b7f4e487b71000000000000000000000000000000000000000000000000000000005f52601160045260245ffd5b5f612d7582612494565b91507fffffffffffffffffffffffffffffffffffffffffffffffffffffffffffffffff8203612da757612da6612d3e565b5b600182019050919050565b5f612dbc82612494565b9150612dc783612494565b9250828201905080821115612ddf57612dde612d3e565b5b92915050565b7f4e487b71000000000000000000000000000000000000000000000000000000005f52603260045260245ffd5b5f81519050919050565b5f82825260208201905092915050565b5f612e3682612e12565b612e408185612e1c565b9350612e5081856020860161241e565b612e598161242c565b840191505092915050565b5f608082019050612e775f830187612522565b612e846020830186612522565b612e916040830185612602565b8181036060830152612ea38184612e2c565b905095945050505050565b5f81519050612ebc8161237c565b92915050565b5f60208284031215612ed757612ed6612349565b5b5f612ee484828501612eae565b91505092915050565b5f81905092915050565b5f612f0182612404565b612f0b8185612eed565b9350612f1b81856020860161241e565b80840191505092915050565b5f612f328285612ef7565b9150612f3e8284612ef7565b91508190509392505050565b5f819050815f5260205f209050919050565b5f6020601f8301049050919050565b5f82821b905092915050565b5f60088302612fa67fffffffffffffffffffffffffffffffffffffffffffffffffffffffffffffffff82612f6b565b612fb08683612f6b565b95508019841693508086168417925050509392505050565b5f819050919050565b5f612feb612fe6612fe184612494565b612fc8565b612494565b9050919050565b5f819050919050565b61300483612fd1565b61301861301082612ff2565b848454612f77565b825550505050565b5f5f905090565b61302f613020565b61303a818484612ffb565b505050565b5f5b82811015613060576130555f828401613027565b600181019050613041565b505050565b601f8211156130b357828211156130b25761307f81612f4a565b61308883612f5c565b61309185612f5c565b602086101561309e575f90505b8083016130ad8284038261303f565b505050505b5b505050565b5f82821c905092915050565b5f6130d35f19846008026130b8565b1980831691505092915050565b5f6130eb83836130c4565b9150826002028217905092915050565b61310482612404565b67ffffffffffffffff81111561311d5761311c6126c5565b5b6131278254612a90565b613132828285613065565b5f60209050601f831160018114613163575f8415613151578287015190505b61315b85826130e0565b8655506131c2565b601f19841661317186612f4a565b5f5b8281101561319857848901518255600182019150602085019450602081019050613173565b868310156131b557848901516131b1601f8916826130c4565b8355505b6001600288020188555050505b505050505050565b5f6040820190506131dd5f830185612522565b6131ea6020830184612602565b9392505050565b7f4e487b71000000000000000000000000000000000000000000000000000000005f52601260045260245ffdfea26469706673582212204bc7cb9c9ec733f0b1f20fd2e33d9442ce83675ccf23bbff063b96b00f70c46364736f6c63430008230033","linkReferences":{}},"methodIdentifiers":{"MAX_SUPPLY()":"32cb6b0c","MINT_PRICE()":"c002d23d","approve(address,uint256)":"095ea7b3","balanceOf(address)":"70a08231","changeOwner(address,uint256)":"56df3db1","getAllNFTs()":"e0391b09","getApproved(uint256)":"081812fc","getName()":"17d7de7c","getSybol()":"41ad443b","getTotalSupply()":"c4e41b22","isApprovedForAll(address,address)":"e985e9c5","mint(string)":"d85d3d27","name()":"06fdde03","owner()":"8da5cb5b","ownerOf(uint256)":"6352211e","renounceOwnership()":"715018a6","safeTransferFrom(address,address,uint256)":"42842e0e","safeTransferFrom(address,address,uint256,bytes)":"b88d4fde","setApprovalForAll(address,bool)":"a22cb465","setMintPrice(uint256)":"f4a0a528","supportsInterface(bytes4)":"01ffc9a7","symbol()":"95d89b41","tokenIdCounter()":"98bdf6f5","tokenURI(uint256)":"c87b56dd","totalNFTCnt()":"dee5aab9","transferFrom(address,address,uint256)":"23b872dd","transferOwnership(address)":"f2fde38b","withdraw()":"3ccfd60b"},"id":53}